:020000041000EA
:1000000000B5324B212058609868022188439860DF
:10001000D860186158612E4B002199600221596106
:100020000121F02299502B49196001219960352056
:1000300000F044F80222904214D00621196600F024
:1000400034F8196E01211966002018661A6600F04E
:100050002CF8196E196E196E052000F02FF8012189
:100060000842F9D1002199601B49196000215960AB
:100070001A491B48016001219960EB211966A021F2
:10008000196600F012F800219960164914480160C1
:100090000121996001BC002800D000471248134993
:1000A000086003C880F30888084703B5996A0420EC
:1000B0000142FBD001200142F8D103BD02B5186610
:1000C0001866FFF7F2FF186E186E02BD00000240BE
:1000D000000000180000070000035F00212200005C
:1000E000F4000018222000A00001001008ED00E03C
:1000F00000000000000000000000000074B24E7A12
:1001000000200420F7010010C3010010C5010010F9
:10011000C1010010C1010010C1010010C101001097
:10012000C1010010C1010010C1010010C701001081
:10013000C1010010C1010010C9010010CB01001065
:10014000CD010010CD010010CD010010CD01001037
:10015000CD010010CD010010CD010010CD01001027
:10016000CD010010CD010010CD010010CD01001017
:10017000CD010010CD010010CD010010CD01001007
:10018000CD010010CD010010CD010010CD010010F7
:10019000CD010010CD010010CD010010CD010010E7
:1001A000CD010010CD010010CD010010CD010010D7
:1001B000CD010010CD010010CD010010CD010010C7
:1001C00000BE00BE00BE00BE00BE00BEEFF3058054
:1001D000103800BEF2EB8871ACE60510C8E60510D9
:1001E0003402001090A31AE700201F49086006C8D7
:1001F00081F3088810471D48006800282FD10DA4FE
:100200000ECC002902D000F012F8F9E71849194A7B
:10021000002000E001C19142FCD1174988471749ED
:1002200088471749884700BEFDE701C901C29A42C5
:10023000FBD37047C8E60510C0000020881E0020D0
:100240009004061000000420000004209004061012
:10025000001004200010042000000000704709482E
:1002600006F072F90047000008ED00E0000000D041
:10027000881E002068AF002051520010B9170010EE
:100280000F5200105756000006005250ABB3605397
:10029000F824051006005250861C0302082505109C
:1002A000060052505422A29D1425051005005250FC
:1002B000DE65F46890040610F8B5C04610B5064C2B
:1002C0002378002B07D1054B002B02D0044800E017
:1002D00000BF0123237010BDA01F002000000000FC
:1002E000588E0410044B10B5002B03D0034904486A
:1002F00000E000BF10BDC04600000000A41F0020A9
:10030000588E041030B589B01F4A13681933136032
:100310001E490A6819320A601D4A1168C8001D4A40
:10032000121852681C480068424393422AD91B4B5A
:100330001B78002B26D00131154B19601F2904D9D9
:100340000023134A1360114A13600F4B00221A60F6
:100350000F4B1B680F49DB00CA185268104C64250C
:100360000795504306905B580593230010336A4667
:1003700023CB23C203CB03C220686168A268E36871
:1003800001F09CFB09B030BD782000207C200020CB
:1003900074200020D0110020C411002064AF002080
:1003A000C4AC002010B5034B01221A70FFF7AAFF5E
:1003B00010BDC04664AF002010B504003BF098FEAD
:1003C000C217120F80180F231840801A02332360BF
:1003D0006060123BA3600023E360200010BD0000BA
:1003E000014B18707047C046D112002082B00091B6
:1003F00001924A1C53009B185B000360019A530052
:100400009B185B001233436002B0704782B00090CB
:1004100001910B00C80F0F2200219A424841C0B23F
:1004200002B0704782B000900191C817401AC00F07
:1004300002B0704782B000900191002807DB1128BC
:1004400008DC002908DD0F2908DD012000E001207B
:1004500002B070470120FBE70120F9E70020F7E731
:10046000F0B5C64600B504000F00160008003DF0C8
:100470004BF90500230008332360002363602372D7
:1004800073681918200025F02FFE0B4B62689B1A29
:100490009D420DD82A003900200025F09FFF3168C9
:1004A0007268200025F09AFF200080BCB846F0BD9D
:1004B00002481BF0A9F8C046FFFFFF3F588E04100A
:1004C00070B582B005000E1E0DD0941B01940F2C48
:1004D0000ED82868012C14D0002C14D02200310032
:1004E00007F090FE0FE09142EFD00B481BF05CF854
:1004F000002201A9280025F03FFD2860019BAB6088
:10050000E7E733780370019A6A602B689B18002232
:100510001A7002B070BDC046708E041030B593B032
:100520000400364801F010FC0823032202210120B8
:1005300001F0BCFB324B1B681A680F230B21002013
:1005400001F05CFD0F2300220021002001F0AEFB32
:1005500022002C496846FFF783FF01235B421022EB
:100560000321684602F014F9009802AB984203D0C8
:10057000029B591C07F05CFE0F230F220F210F2056
:1005800001F094FB22001F4906A8FFF769FF012331
:100590005B420F22022106A802F0FAF8069808AB87
:1005A000984203D0089B591C07F042FE164B5C6929
:1005B00000E0013C002C1EDD0EAD0C95134AD11F4E
:1005C00000230CA8FFF77CFF0D4B1B681A6863071C
:1005D0001B1B9B001B1B5900012351185B420F2260
:1005E0000CA802F0D5F80C98A842E2D00E9B591C3A
:1005F00007F01EFEDDE713B030BDC0461D19001028
:10060000549100209C8E0410E8AC0020AB8E0410A6
:10061000F0B5C64600B5C0B0E44DE549286807F01E
:1006200081F9071C2860E34E8121C905306807F075
:1006300094F9011CFE24A405DF4B9846381C07F0F2
:1006400071F9231C221C414602F0CCF8DB4B1880C8
:100650008121C905306807F080F9296807F062F93F
:10066000D74907F05FF9231CD64AD74902F0BAF8F8
:10067000D64B188002F0ACFAD549306807F06DF916
:10068000296807F04FF9D34B221C414602F0AAF823
:10069000D14B1880D149306807F05FF9296807F01D
:1006A00041F9231C221C414602F09CF8CC4B1880D7
:1006B000CC4B1B78022B00D185E00F23362214216E
:1006C000142001F0F3FA01F0E5FC0F23FF22FF21D3
:1006D000FF2001F0EBFA0F230022FF21FF2001F0A1
:1006E000E5FA05231E224821052001F087FC052399
:1006F0001E2248212D2001F081FC05231E224821C5
:10070000552001F07BFC042300220021002001F091
:10071000CDFA0F230F220F210F2001F0C7FAB24BA1
:100720001B681A680B230021002001F067FC0F23CF
:1007300000220021002001F0B9FA22AC2094AB4A3B
:1007400011000839002320A8FFF7BAFE01235B42FD
:100750000222022120A802F01BF82098A04203D018
:10076000229B591C07F064FDA14B196926A802F0D1
:10077000B9F926A8FFF7D2FE269828AB984203D0F5
:10078000289B591C07F054FD5A2374221B21022078
:1007900001F006FC5A2374221D21022001F000FC06
:1007A000944B9A680692DA6807921A6908925A6915
:1007B00009929E690A96DA690B921A6A0C925B6A30
:1007C00001930D932EE10D3300220021002001F052
:1007D0006DFA01F05FFC10AC0E94874A11001239DB
:1007E00000230EA8FFF76CFE744B1D88774B1E8804
:1007F000824801F0A9FA280001F068FA042378225F
:100800001E21002001F086FA01256D422B001E22D8
:100810001B210EA801F0BCFF300001F057FA0423A1
:1008200078222221002001F075FA2B001E221B21C4
:100830000EA801F0ADFF01F055FA0E98A04203D0CA
:10084000109B591C07F0F4FC16AB14936C4A111F53
:10085000002314A8FFF734FE684801F075FAFF2062
:1008600001F034FA00240FE03BF042FC092105F0CE
:1008700097FE043949B2012337315B423C2214A868
:1008800001F086FF0134E4B2072C0CD821003C3182
:1008900001237822002001F03DFA3BF029FC4307B8
:1008A000E2D00021E7E701F01DFA149816AB984258
:1008B00003D0169B591C07F0BBFC1CAD1A95514A7E
:1008C0001100153900231AA8FFF7FAFD4E4E30002B
:1008D00001F03AFAFC2001F0F9F901246442230006
:1008E000592202211AA801F053FF230059220321A3
:1008F0001AA801F04DFF2300592204211AA801F083
:1009000047FF23005A2202211AA801F041FF2300C9
:100910005A2203211AA801F03BFF23005A22042186
:100920001AA801F035FF23005B2202211AA801F06A
:100930002FFF23005B2203211AA801F029FF2300C7
:100940005B2204211AA801F023FF300001F0FCF91A
:100950000F2300220021002001F0A8F923005A22D1
:1009600003211AA801F014FF1A98A84203D01C9B77
:10097000591C07F05DFC254B1B78002B00D1CEE005
:100980000F2300220021002001F090F90523052209
:100990005121262001F032FBFF2001F097F90523B9
:1009A00005223D212D2001F029FBB8E094AC002068
:1009B0000AD7233CCC110020CDCC4C3F56AF0020B1
:1009C000CDCCCC3D9A99193FCDCCCC3E58AF002030
:1009D0000000A040CDCC4C3E5AAF00200000C040EB
:1009E0005CAF0020D112002054910020E88E04104A
:1009F000E8AC002014AD0020BE8E0410F9190010E0
:100A0000C48E0410DD8E04101D1A0010D0120020B8
:100A1000099B1A1D09925B680793802292009A181D
:100A200008920693069B9E421DD002AC220023CB67
:100A300023C21B6813600299039A2CA8FFF7D6FC07
:100A40002C9D0299039A2EA8FFF7D0FC2F9A03320F
:100A5000E91CC42001F000FC069B10330693089AA1
:100A60009342DFD1D4E7914B9A680692DA680792F5
:100A70001A6908925A6909929E690A96DA690B9274
:100A80001A6A0C925B6A01930D9309E0099B1A1D87
:100A900009925B680793802292009A180892069345
:100AA000069B9E421DD002AC220023CB23C21B68B2
:100AB00013600299039A30A8FFF798FC309D0299C1
:100AC000039A32A8FFF792FC339A0332E91C66209E
:100AD00001F0C2FB069B10330693089A9342DFD1C4
:100AE000D4E702F075F8FA2105F082FD01230340F6
:100AF0006F4A1278002A03D0012A0CD1002B0AD1A8
:100B00006C4B9968DA680AA8FFF770FC0B9A0A998F
:100B1000482001F0A1FB664B1B78012B03D040B0AD
:100B200080BCB846F0BD36AD3495634A1100093932
:100B3000002334A8FFF7C4FC604B1C88604E3000D3
:100B400001F002F9200001F0C1F801246442230001
:100B50003922202134A801F01BFE23003922212153
:100B600034A801F015FE23003922222134A801F017
:100B70000FFE23003A22202134A801F009FE2300B1
:100B80003A22212134A801F003FE23003A22222137
:100B900034A801F0FDFD23003B22202134A801F000
:100BA000F7FD23003B22212134A801F0F1FD2300B1
:100BB0003B22222134A801F0EBFD300001F0C4F803
:100BC0000F2300220021002001F070F823003A22B8
:100BD000212134A801F0DCFD3498A84203D0369BD3
:100BE000591C07F025FB3CAD3A95364A11001139E6
:100BF00000233AA8FFF764FC304B1C88304E3000CD
:100C000001F0A2F8200001F061F801246442230001
:100C10004D2211213AA801F0BBFD23004D221221E3
:100C20003AA801F0B5FD23004D2213213AA801F0A6
:100C3000AFFD23004E2211213AA801F0A9FD2300A7
:100C40004E2212213AA801F0A3FD23004E221321C7
:100C50003AA801F09DFD23004F2211213AA801F08E
:100C600097FD23004F2212213AA801F091FD2300A5
:100C70004F2213213AA801F08BFD300001F064F8F7
:100C80000F2300220021002001F010F823004E2243
:100C900012213AA801F07CFD3A98A84200D13EE723
:100CA0003C9B591C07F0C4FA39E7C0469CAC0020B5
:100CB000D1120020E8AC0020F58E04105AAF0020BD
:100CC0001D1A0010098F041070B50C00150004E007
:100CD00001CC8021890007F0ABFAAC42F8D370BD9B
:100CE00010B504000368002B09D0436A1A1D41693E
:100CF000FFF7EAFF63689900206807F099FA20007F
:100D000010BD10B5040080218900C06807F090FA7A
:100D100063691A1D62615B68E360802292009A1821
:100D20002261A36010BD70B50C00150004E08020A6
:100D3000800007F06DFA01C4AC42F8D370BDF0B585
:100D400083B004000F004B095D1C0822009203339E
:100D50000193082B2CD86B461868606080239B0594
:100D6000984227D2800007F053FA0600206063689B
:100D7000581B400880003618AD0075192A00310054
:100D80002000FFF7D0FF66613268E26080218900B1
:100D900053182361043D65622B68E3615918216291
:100DA000A2601F210F403F01DB19A36103B0F0BD1A
:100DB00001ABD1E71AF0D8FB10B5040000230360A3
:100DC00043608360C360036143618361C361036205
:100DD00043620021FFF7B3FF200010BDF0B5CE46FF
:100DE000474680B583B0040001919046426A41694C
:100DF000571ABD1001350198451963686E00B3425A
:100E00001FD926685B1B5B089B004546002D01D05F
:100E1000850000E000255D197519A94207D9131D49
:100E20005A1A994236D028003BF080F832E0131D60
:100E3000381D28185A1A99422CD0801A3BF076F89F
:100E400028E0221D984238D816689E190236802361
:100E50009B059E4233D2B00007F0DAF98146751B3C
:100E60006D08AD004346002B2BD0019B9B00ED1875
:100E70004D446169636A04335A1A994202D02800CA
:100E80003BF054F863689900206807F0D1F94B46AD
:100E90002360666065612B68E3608022920094465F
:100EA00063442361ED1965622B68E3616344236247
:100EB00003B0C0BCB946B046F0BD01AAC4E71AF001
:100EC00053FB0023D3E7000070B504000D000200BF
:100ED000436A183240691B1A9B10013B5B01526840
:100EE000A069821A12119B182269A168521A121164
:100EF0009B18154A93421DD0636A22689B1A9B1067
:100F00006268D31A012B18D9666A8020800007F026
:100F10007FF97060A36907CD07C32A681A60636A06
:100F20001A1D62625B68E361802292009A18226255
:100F3000A36170BD05481AF067FB00220121200063
:100F4000FFF74CFFE0E7C046FFFFFF070C8F0410E0
:100F500030B587B004008369026A103A934217D013
:100F600025C925C31A000B681360A3691033A36158
:100F7000A2690292E3690393216A0491616A019173
:100F800005919A4207D002981038029007B030BD00
:100F9000FFF79AFFECE70B00043B05931B680393F4
:100FA000802292009446634404930293EBE700008E
:100FB00010B584B0094B586100229A600F21D960A6
:100FC00001241C605A606846FFF7F6F96946044838
:100FD000FFF7BEFF034B1C7004B010BDE8AC00204F
:100FE00014AD002062AF0020F0B5C64600B5A8B031
:100FF000424B01221A70424E06AC0025059504951D
:1010000003950223984602930833019332270097F1
:10101000283331323221200000F03EFD330022001F
:1010200043CA43C343CA43C343CA43C3354E05956A
:10103000049503954346029312330193009750336E
:1010400032226421200000F027FD3300220013CA61
:1010500013C313CA13C313CA13C32B4B1B78002B20
:1010600003D028B080BCB846F0BD284CA06814ADB1
:101070001490E268159223691693616917911C9088
:101080001D921E931F91A3691893E3691993236A14
:101090001A93626A1B92043204312000FFF714FE97
:1010A00018342B0007CB07C41B682360184CA068BA
:1010B00010AD1090E2681192236912936169139147
:1010C0002490259226932791A3692093E369219385
:1010D000236A2293626A2392043204312000FFF7CC
:1010E000F3FD18342B0007CB07C41B682360094BA2
:1010F00000221A610720FFF75BFFB2E7D012002041
:10110000D4AB002064AC0020D112002014AD00202C
:101110009CAC0020E8AC0020F0B5D6464F464646D1
:10112000C0B5B6B00400B14B1B78022B57D0002BD2
:1011300000D09AE2AE4B1B78002B00D192E2FFF771
:1011400031F9AC4B1968200005F052FA002967D03C
:10115000A84B19684900200005F04AFA002967D019
:101160001E21200005F044FA002900D09BE09F4B8F
:101170001B78012B00D196E09F4B9A680C92DA689D
:101180000D921A690E925A690F9298691090DA6955
:1011900011921A6A12925B6A099313930C9B834211
:1011A0004ED019689A68944661442EAA2E915968C7
:1011B000DD68AC4661442F9122CA22C30C9B1033D8
:1011C0000C930E9A9342E9D10F9B1A1D0F925B6804
:1011D0000D93802292009A180E920C93DEE7122053
:1011E00001F0EAFC002800D141E20020FFF7F8F806
:1011F000824C64230793323B0693814B0593230073
:1012000010336A4623CB23C203CB03C22068616834
:10121000A268E36800F052FCC82001F009FD26E254
:1012200014A8FFF7C9F814A97648FFF791FE8FE7D5
:1012300018A8FFF7C1F818A96F48FFF789FE8FE7D4
:10124000704B9A680C92DA680D921A690E925A697C
:101250000F9298691090DA6911921A6A12925B6A79
:10126000099313930C9B98421DD019689A68944671
:10127000614430AA30915968DD68AC4661443191CF
:1012800022CA22C30C9B10330C930E9A9342E9D1CD
:101290000F9B1A1D0F925B680D93802292009A1883
:1012A0000E920C93DEE70A21200005F0A1F9002937
:1012B00000D0DCE1544B9D681A68944665440A9559
:1012C000DA685B689046984443460B93172001F018
:1012D00073FC002805D00A980B99FFF7A3F80028A3
:1012E00023D1142001F068FC002805D00A980B993E
:1012F000FFF78CF8002845D1132001F05DFC002891
:101300006DD13D4B9A680C92DA680D921A690E9273
:101310005A690F929A6992461092DA6911921A6A82
:1013200012925B6A09931393B5E0374C0023236054
:10133000013B6360012005F03FFC05F0C9FC06009D
:101340000F00206805F038FC32003B0005F09DFBE3
:1013500005F04AFC81462060606805F02DFC3200F3
:101360003B0005F092FB05F03FFC6060A2684A4438
:1013700032AB3292E268944660443390083406CB34
:1013800006C4AEE7204C01236360002323600120E4
:1013900005F012FC05F09CFC06000F00206805F02B
:1013A0000BFC32003B0005F070FB05F01DFC814694
:1013B0002060606805F000FC32003B0005F065FB32
:1013C00005F012FC6060A2684A4434AB3492E268D3
:1013D000944660443590083406CB06C48CE7044B31
:1013E00000221A700220FEF7FBFF8AE7D1120020CC
:1013F00062AF0020C811002014AD002064AC0020B2
:10140000C40900009CAC0020E8AC002021AB1A68A5
:10141000A04B5A61A04F642399460793463B06931D
:10142000FA239B0005933B0010336A4643CB43C22B
:1014300003CB03C238687968BA68FB6800F03EFBEA
:101440003AF056FE122105F0ABF822AB22914A4643
:101450002392653A249200222592220043CB43C274
:101460001B68136020686168FEF7E4FF002802D162
:101470006368112B09DD894B9A681B69103B9A42FE
:101480002FD0864A9368103393600C9B10330C93D3
:101490000E9A934229D00C9CA24531D02368A268B1
:1014A000944663441C936268E1688C4662441D92D2
:1014B0001E931F9201210391029101920093012337
:1014C00001224146280001F07DFA0028CAD0714B64
:1014D0005B690333209307222192072B96DC20AB14
:1014E00095E76E48FFF70DFCCFE70F9B1A1D0F9293
:1014F0005B680D93802292009A180E920C93CAE7B3
:10150000674B9A680C92DA680D921A690E925A69C2
:101510000F929A6992461092DA6911921A6A12929F
:101520005B6A099313933CE05A4A5369023B536147
:10153000594F642399460793463B0693D733FF33AD
:1015400005933B0010336A4643CB43C203CB03C22F
:1015500038687968BA68FB6800F0B0FA3AF0C8FDFC
:10156000122105F01DF82AAB2A914A462B92653AC2
:101570002C9200222D92220043CB43C21B681360A1
:10158000484B01221A702BE04548FFF7BAFB3AE0BE
:10159000454B01221A700C9B10330C930E9A934208
:1015A00055D00C9CA24562D03E4B00221A70236895
:1015B000A2689446634426936268E1688C4662445C
:1015C000279228932992012103910291019200937D
:1015D000012301224146280001F0F4F90028A3D19B
:1015E00020686168FEF726FF002802D16368632B3C
:1015F000D1DD2B4B9A681B69103B9A42C4D0284A14
:10160000936810339360234B5B69002BC0DD254A40
:101610001278002ABFD11F4A013B5361136901337D
:1016200013611D4C64230793463B0693FA239B00EA
:101630000593230010336A4643CB43C203CB03C256
:1016400020686168A268E36800F038FAA3E70F9B9E
:101650001A1D0F925B680D93802292009A180E92C9
:101660000C939EE7FFF7C0FC01E0012B05D036B0DC
:10167000E0BCBA46B146A846F0BD132001F088FA96
:101680000028F4D0094B00221A70074B02321A705E
:10169000EDE7C046E8AC0020D4AB002014AD00203C
:1016A0009CAC002063AF0020D112002062AF00206C
:1016B00010B588B0040083680093C3680193036980
:1016C00002934369039383690493C3690593036A8F
:1016D0000693436A0793FFF703FB200008B010BD91
:1016E00030B587B004000D00012806D0002C02D1CF
:1016F000144B9D421BD007B030BD124B9942F5D11F
:10170000114807F02DFC00230593049303930293E3
:10171000019332330093C82214210C4800F0BCF925
:101720000B48FFF749FB0B48FFF746FBDEE709488C
:10173000FFF7BEFF0648FFF7BBFF034807F020FC9A
:10174000D9E7C046FFFF000024AB0020C4AC002056
:1017500014AD00209CAC002010B502490120FFF719
:10176000BFFF10BDFFFF000010B5012800D010BD65
:101770000A4B9942FBD10A4A7821080001F0F6F899
:10178000084B1860084B1860084A8021080001F0D7
:10179000EDF8074B1860074B1860E8E7FFFF000003
:1017A0009C20002054910020982000206095041077
:1017B0008420002024910020F8B5CE46474680B50D
:1017C00001F01EFC01F004FC0024FF2C10D82000C6
:1017D00006F010F9EE21890506F0BFF8454906F03C
:1017E000BCF806F07BF9A300434AD0500134ECE783
:1017F000002001F051FB01F08DFA01F029FA0028D8
:10180000FBD101F019FA01F017FA4B2001F044FB6B
:10181000FFF7EAFB01F0D8FB384B1860002398462D
:10182000002602E0364B00225A6001F0EFF9040076
:1018300000F044FA00F050FA00F054FA00F07CFA9C
:1018400000F090FA00F096FA00F0CEFA2B4D2D4BF6
:101850002A681A6001F0B8FB286001F0D7F905008A
:10186000731C99463000FFF757FC01F0CFF9401B7D
:10187000234BD86001F0CAF9050001F0E9F900280E
:10188000FBD101F0C3F94346C01A1D4F786101F046
:10189000BDF9451B01F0BAF980464846FEF7B8FE8F
:1018A00001F0B4F94346C01A386101F0AFF980463F
:1018B00001F0C2F901F0AAF94346C01A2D1801F04F
:1018C000A5F9804601F026FA023601F09FF9041BC3
:1018D000BC6021000C4804F08BFE013038602828E1
:1018E000A0D964206843210004F082FE044B5860B4
:1018F0009BE7C046DB0FC940809100201C9100206F
:101900003C910020309100203F420F0010B5024969
:101910000120FFF729FF10BDFFFF0000F0B5D646FC
:101920004F464646C0B581468A4608980C14640066
:1019300049460E5B34032B4D2C4026432A4C26404F
:10194000350C0F242540294C247865430F352D1183
:10195000EDB2EF0801243C402D19EDB201E0380052
:101960002300471E002837D01C88200384461D48CA
:101970006146084004431C4804401020401B60435B
:101980002C007443241818498C46644421091848D3
:101990000840240C17490C4020439C1C1880002A46
:1019A000DDD0924453461B145B004946CE5A3303A4
:1019B0000C4D2B401E430C4B1E40350C0F232B406F
:1019C0000A4D2D785D430F352D11EDB2E808012346
:1019D0000340ED18EDB2C2E7E0BCBA46B146A846F6
:1019E000F0BDC04600000F0F0F0F0F0FD2120020E6
:1019F0000F0F0000F0F0000070B5049C02E002330D
:101A000089182C00651E002C07D00C146400045BA0
:101A1000F0262642F3D01C80F1E770BDF0B5D64623
:101A20004F464646C0B584B082460E0091461D0022
:101A30000C9B184A12880E2169440A8012090F2152
:101A40000A4090461DE033145B005246D45A2409E4
:101A50000F231C4043465C430F340E206844038828
:101A6000F0229343038024112401234303800123A4
:101A700000932B0000220021FFF750FF02354E4457
:101A80003B005F1E002BDED104B0E0BCBA46B1467D
:101A9000A846F0BD54AF002010B5039C0460049C20
:101AA00044608160C2600361029B4361059B836166
:101AB000069BC361079B036210BD000084B010B594
:101AC00002900391049205930B9B0D4A13600D4AFB
:101AD00013600D4B0C9A1A600C4B0D9A1A600C494E
:101AE0000B0002AA13CA13C313CA13C313CA13C326
:101AF000084B00221A6010BC08BC04B01847C0464E
:101B0000802000208C2000207C910020F0120020FA
:101B10005891002020910020F0B5CE46474680B570
:101B200083B005004B4B5F694B4A14683A199146E4
:101B30009E694E44864200D884E0196A002902D08A
:101B400004F056FD6D1A454B1B689846414B996849
:101B50008C4224D8404B1B68AB4223D9280204F0A6
:101B600047FD44464443240A3A4BDB69002B56D1D7
:101B7000384B9869002866D0A84264D2281AFFF72B
:101B8000CBFF070020006843310004F031FD040062
:101B9000701B7843310004F02BFD241853E02D4BCB
:101BA0000833D8E72B4BDA68531801939C4216D8B8
:101BB000294B1B68AB4214D9681A0002110004F0CB
:101BC00017FD0700234B18690002642104F010FD83
:101BD00080235B00181A7843000A181AC1E701AB8A
:101BE000E7E7AC4206D91B4B18690002642104F0F8
:101BF000FFFCB6E7A94510D9281B0002390004F004
:101C0000F7FC80277F003F1A124B186900026421FD
:101C100004F0EEFC7843000AA3E70020A1E73AF0C5
:101C200067FA0C4BDF69390004F0E2FC7F08C91B3E
:101C3000631803D4642B03DC1C0099E7002497E7A6
:101C4000642495E70024E0B203B0C0BCB946B046B6
:101C5000F0BDC046589100207C910020F012002079
:101C600010B50E4B1C68002C0CD05968002909D007
:101C70000B4B186804F0BCFC44430A4B186824184A
:101C8000094B1C60064B1868421C1A60FFF744FFA2
:101C90000100054B186801F00FF910BD58910020A4
:101CA000209100208C2000208020002010B500F022
:101CB00089FD014B188010BD54AF002010B50F23D3
:101CC0000F220F210F20FFF7F1FF10BD014B1880ED
:101CD0007047C04654AF0020014B0F221A70704766
:101CE000D21200200023064A1360064A1360064BF6
:101CF0001B68064A196811605A68054B1A607047DC
:101D0000902000209420002098200020DC12002049
:101D1000D812002010B5044C20600448016004492A
:101D20000A60044A136010BD902000209420002017
:101D3000DC120020D8120020014B024A1A607047C2
:101D4000D41200201D190010014B18607047C046C6
:101D5000D412002010B5024B1860FFF7C3FF10BD6E
:101D60009820002010B5024B1868FFF7F3FF10BD54
:101D7000549100200023024A1360024A1360704706
:101D80003491002038910020054B1B680268D31A5B
:101D90000360044B1B680A68D31A0B607047C04687
:101DA0003491002038910020002808D00A4B1A688E
:101DB0000A4B1A600A4B1A680A4B1A6070470749A7
:101DC000054B0A681A60074B054A18681060002224
:101DD0000A601A60F2E7C04628AB00203491002068
:101DE0002CAB0020389100200023024A1360024AE5
:101DF00013607047289100202C91002010B584B00A
:101E00000390029102A903A8FFF7BEFF124B1B68C3
:101E1000124A126812490968019112490968009131
:101E20000299039800F045FE002812D00E4B1B6863
:101E300099681B68029A5343039A944663445B0073
:101E4000CB1801220092094A146800220021084898
:101E5000A04704B010BDC046942000209020002070
:101E6000D8120020DC12002098200020D41200207C
:101E700054AF002030B585B003900291140002A940
:101E800003A8FFF781FF029A164B1B689A4226DBD4
:101E9000154909685B189A4221DA0399134B1B68AC
:101EA000994202DA591A641A039303990819104DDA
:101EB0002D685B19984201DBC31AE41A002C0EDD71
:101EC0000C4B1B6898681B685343CB185B00C31806
:101ED0000094094A1468002200210848A04705B070
:101EE00030BDC04694200020D81200209020002051
:101EF000DC12002098200020D412002054AF0020D3
:101F000070B584B003900291140002A903A8FFF7F2
:101F10003BFF039B1B4A1268934230DB1A49096856
:101F2000521893422BDA0299184A1268914202DA47
:101F3000511A641A029202980119154D2D6852190E
:101F4000914201DB891A641A124A12689568126874
:101F500042439B185B00ED180EE0012300930E4BEB
:101F60001C682B00002200210C48A047094B1B686D
:101F70001A685200AD183400661E002CEDDC04B067
:101F800070BDC04690200020DC120020942000206C
:101F9000D812002098200020D412002054AF002036
:101FA00070B582B00190009114001D00694601A82F
:101FB000FFF7EAFE0020FFF7F7FE220000990198E4
:101FC000FFF758FF6E1E009B591C32000198FFF767
:101FD00097FF009BE918621E0139019B581CFFF70F
:101FE00049FF019BE018013832000099FFF788FF94
:101FF0000120FFF7D9FE02B070BD000030B589B0F6
:10200000079006910592049306A907A8FFF7BCFE66
:10201000194B1B680393194B1B680293184B1B68E1
:102020000193184B1B68009304AB05AA06A907A8E7
:1020300000F0E7FC144B1B689C681B68069A53432E
:10204000079A944663445B00E4180DE0059B0093F7
:102050000E4B1D682300002200210D48A8470A4BA3
:102060001B681A685200A418049B5A1E0492002B85
:10207000ECD109B030BDC046D8120020DC120020DF
:10208000942000209020002098200020D4120020CE
:1020900054AF002010B5054B1B68054A126805496E
:1020A000096805480068FFF7A9FF10BDD812002095
:1020B000DC1200209420002090200020F0B5DE46A5
:1020C00057464E464546E0B587B081468A461600DB
:1020D0001D00109C12A911A8FFF756FE574B1B6854
:1020E0000393574B1B680293564B1B680193564B47
:1020F0001B68009323002A001299119800F062FCDB
:10210000002800D193E05346002B63DB002E69DBEF
:1021100053465B194A461268934201DB9B1AED1A3B
:1021200033194A465268934201DB9B1AE41A119B09
:10213000454A11688B4203DACB1A9A44ED18119183
:10214000129A404B1B689A4203DA9A1AB618A418DE
:102150001293119A50193A4F3F68C919884201DB0E
:10216000411A6D1A12990819344F3F68DB199842C9
:1021700001DBC31AE41A002D59DD002C57DD4B4654
:102180001B685E43564476004B469B689C466644FB
:102190002E4B1B689F681B689B4659435218520080
:1021A000BF18139BDB0723D55346EB1A013B1B04D7
:1021B0009846274B9A46139B9B071FD5631E5A468A
:1021C00053435B00FF1853429B4643460593A84682
:1021D000230029E0119B52469B1A1193554400237A
:1021E0009A4693E7129B9B1B1293A41900268FE734
:1021F00080235B029A4600239846DCE7434605931A
:10220000A846230010E043460093124B1D683B0094
:10221000524605993000A8475B465B00FF184B46C5
:102220001B685B00F61823005C1E002BEBD107B087
:10223000F0BCBB46B246A946A046F0BDD81200206D
:10224000DC12002094200020902000209820002004
:102250000000FFFFD4120020F0B5CE46474680B5FF
:1022600085B0050088461700104B1E683368DA17E2
:1022700007241440E418E410210004F0B9F9894659
:102280002100280004F0B4F94B46D900C200002315
:102290000393029743460193082300933000FFF70E
:1022A0000DFF05B0C0BCB946B046F0BD249100207A
:1022B0000300064A1068421C00D07047203B1800FB
:1022C000DB001818024B1B68185CF6E7E8120020C8
:1022D000EC120020F8B5DE4657464E464546E0B5BE
:1022E0008346264B1B680278203AD1008A189B1837
:1022F0005A1C1F78224B1B68591C07D0DB1B5B1034
:10230000DBB299461F4B1B68984617E0002399469D
:10231000F8E76400E4B201351B4B1B68F318DB19C6
:10232000AB4207DD63B2002BF3DA41462800FFF72A
:1023300065FDEEE701239C46E0445246114B1B68C5
:102340000733434507DB531C9A4614784E460E4B21
:102350001D684D44E0E75B461878FFF7A9FF0B4B7B
:102360001B68C018084B1A68944660441860F0BC9B
:10237000BB46B246A946A046F8BDC046EC120020B6
:10238000E81200202C91002028910020E412002067
:1023900030B5002300E001334C68A34209D2146831
:1023A000E41805682D5D0C68E45CA542F3D00020BC
:1023B00004E013689C4664441460012030BD0300AF
:1023C0003038C0B209280AD91A00413AD2B2052AD7
:1023D00006D91A00613AD2B2052A04D90020704702
:1023E000373BD8B2FBE7573BD8B2F8E7F0B583B03C
:1023F00006000F0014001D0037F038FF036800933B
:1024000037F034FF00230360089A01A92000B04789
:102410000600019BA34211D037F028FF0368222B4E
:102420000FD0002D02D0019B1C1B2C6037F01EFF2B
:102430000368002B08D0300003B0F0BD380019F05D
:10244000CBF8380019F0F8F8009C37F00FFF046063
:10245000F1E70000F0B58DB005000C000B6801330A
:102460000B6002AF00971B4AD11E00236846FEF79F
:1024700027F8220069462800FFF78AFF0600009827
:10248000B84203D0029B591C05F0D2FE002E02D0A8
:1024900023680333236008AE06960F4AD11E00233B
:1024A00006A8FEF70DF8220006A92800FFF770FF26
:1024B00005000698B04203D0089B591C05F0B8FEF1
:1024C000002D02D100200DB0F0BD2368023323603F
:1024D0000820F8E73F8F0410438F041070B582B0D6
:1024E00006000191002504E001A93000FFF7B2FFCA
:1024F0002D18019C3368185D20280AD95C28F3D078
:10250000FFF7D6FE044B1B68C0182D180134019448
:10251000EFE7280002B070BDE4120020F0B5D64607
:102520004F464646C0B594B005000C000B68013319
:102530000B6004AF0297494AD11E002302A8FDF7A1
:10254000BFFF220002A92800FFF722FF0600029821
:10255000B84203D0049B591C05F06AFE002E1CD122
:102560000AAF08973E4AD11E002308A8FDF7A8FF2E
:10257000220008A92800FFF70BFF06000898B842C0
:1025800003D00A9B591C05F053FE002E27D114B02E
:10259000E0BCBA46B146A846F0BD23685F1C276080
:1025A0002A68D05CFFF70BFF82467B1C98462360AD
:1025B0002B68D85DFFF703FF814643465E1C26600B
:1025C0002F68F85CFFF7FBFE8046B85DFFF7F7FE6B
:1025D0000300424649465046FFF768FBC0E72068C3
:1025E0006B6898422FD810AB0E9329686A689042A6
:1025F0002ED80918121A032A00D903228A18002398
:102600000EA8FDF75DFF0A23009300230E9A1549DB
:102610001548FFF7EBFE05000E9810AB984203D06B
:10262000109B591C05F004FE2368023323600F4BF6
:102630001A680F4CFF2028402168FFF70DFE236821
:1026400008332360A3E702000A490B4819F00CF88D
:10265000130002000949084819F006F83F8F0410DA
:10266000438F0410B08F041091E903102C910020C7
:1026700028910020448F04105C8F0410948F041064
:10268000F0B5C64600B582B004000E003C4B1D6894
:102690006B18984600230193002736E05C2B4CD141
:1026A00001A92000FFF73AFF47E0364B1B681B7873
:1026B000334A11688C46634413603EE0314B1B681B
:1026C0001A7893009B185B002D4A11688C4663446E
:1026D000136032E001992000FFF700FF731C35D032
:1026E000274B1B68C018404530DD254B1D60264A2E
:1026F000264B1B6811688C466344136026E0002754
:1027000000E00027019B01330193019B6268934223
:1027100029D22268D35C6A46D370202BC5D0BDD89D
:10272000092BCBD00A2B08D1154B1D60164A174B2D
:102730001B6811688C46634413606B4603331B7837
:10274000202B07D95C2B05D0002FC3D06B46D81C9B
:10275000FFF7C0FD6B4603331B78202BD1D95C2BD0
:10276000CDD00127CEE7084A084B1B6811688C467C
:1027700063441360024B1D6002B080BCB846F0BDDC
:1027800028910020EC1200202C910020E012002063
:1027900030B583B00400019100921D00694601A884
:1027A000FFF7F2FA054B019A1A60054B009A1A607E
:1027B00029002000FFF764FF03B030BD28910020FE
:1027C0002C91002010B50F2404401B01FF2018405D
:1027D00004431202F0200001024014430803204386
:1027E00080B210BDF0B5D6464F464646C0B5041C73
:1027F0000D1C171C1E1C05F0F7FA011C201C05F00F
:102800008CF8574905F0A9F8041C05F0EDFA81464B
:10281000011C201C05F081F882465249381C05F045
:102820009CF8041C4F49301C05F097F8071C291C24
:10283000FE20800505F071F8211C05F08EF805F0EA
:1028400033F9C6B2291C504605F087F8011CFE205A
:10285000800505F062F8211C05F07FF805F024F9E9
:10286000C3B298465146FE20800505F056F8291C53
:1028700005F073F8011CFE20800505F04EF8211CC0
:1028800005F06BF805F010F9C5B2484605F0DAF826
:10289000062103F085FE05295BD88900324B5B5881
:1028A0009F46381C05F000F9C7B2201C05F0FCF863
:1028B000C0B23B0032002900FFF784FFE0BCBA46FB
:1028C000B146A846F0BD381C05F0EEF8C5B2201C94
:1028D00005F0EAF8C1B22B0032004046FFF772FF64
:1028E000ECE7381C05F0E0F8C7B2201C05F0DCF876
:1028F000C1B23B002A003000FFF764FFDEE7381C5E
:1029000005F0D2F8C5B2201C05F0CEF8C2B22B00FB
:1029100041463000FFF756FFD0E7381C05F0C4F8F9
:10292000C7B2201C05F0C0F8C2B23B00310028003D
:10293000FFF748FFC2E7381C05F0B6F8C5B2201C07
:1029400005F0B2F8C0B22B0042463100FFF73AFF63
:10295000B4E70F23002200210020FFF733FFADE78B
:102960000000C04000007041B88F0410F8B50700A7
:102970000C001600102005F04BFC05001022002171
:1029800005F03AFC2F606C60002E02D0AE6028008B
:10299000F8BD7C430A4B9C4205D8600005F03CFC26
:1029A000013C030006E001204042F7E700221A80C4
:1029B0000233013C002CF9DAA86001232B73E6E70F
:1029C000FCFFFF3F30B5039C059DAC466444844248
:1029D0000FDB8018039A90420DDB049A0698844618
:1029E00062448A4209DBCB18049A934207DA00203A
:1029F00000E0002030BD0020FCE70020FAE70120C5
:102A0000F8E770B588B00024009405681468A446FF
:102A1000654402950C9E0E9C34190394A54238DC43
:102A200002AC24680568AE4235DC05002D68641BE5
:102A30000194002C31DC6C4624681460002204925E
:102A40000C681A689446644406940D9D0F9AAA185F
:102A50000792944223DC06AA12680C68A54220DC87
:102A60000C002468121B0592002A1CDC04AA1268C0
:102A70001A600C9B0268934217DC03001B6803601A
:102A80000D9B0A68934212DC0B001B680B6008B0B8
:102A900070BD03ACC5E70CADC8E701ACCCE707AA35
:102AA000DAE70DACDDE705AAE1E70CABE6E70DAB35
:102AB000EBE710B590420DDB99420DDB029CA4467A
:102AC000624482420ADD039A944663448B4207DCE7
:102AD000002000E0002010BD0020FCE70020FAE705
:102AE0000120F8E770B504000B000A4D0A4A2021C6
:102AF000280003F0E9FC23000833236028003AF0A3
:102B000003FE2A18002329002000FDF7D9FC20002D
:102B100070BDC04630AB0020D08F041010B5FFF759
:102B20009FF8012010BD70B50600002401E00134BB
:102B3000E4B21F2C12D80125A5402E42F7D0052162
:102B4000280000F0F1FC0123AB40D0221206936272
:102B500000220121280000F0FFFCE8E770BD70B5FD
:102B60000600002401E00134E4B21F2C0ED8012538
:102B7000A5402E42F7D00521280000F0D5FC012306
:102B8000AB40D022120653629361ECE770BD0000A7
:102B900001238340064A12681A4205D1054A126889
:102BA0001A4203D1002000E0002070470120FCE71A
:102BB0001C9100203091002001238340034A1068BB
:102BC000184043425841C0B27047C0461C91002093
:102BD00010B501F0F5FD002906DB0BD0FA229200BA
:102BE000002303F043FD10BD054B064A3F21064874
:102BF00002F010FBFA21890003F0FAFCF3E7C0466B
:102C0000D48F0410F08F04102890041010B501F038
:102C1000D7FD002900DB10BD024B034A3F210348CA
:102C200002F0F8FAD48F0410F08F041028900410EA
:102C300010B501F011FD10BDD0231B065B68DB054C
:102C4000FAD4D0231B065B68DB05FAD57047000079
:102C5000014B18787047C0465EAF0020154B1B68CB
:102C60009A68154B1B881BB2002B13DD124B1B8877
:102C70001BB2013B1901C91A0B01D2180E4B1B885C
:102C80001BB2002B0AD00C4B1B881BB2782B03D035
:102C9000782104E00023F0E73C2100E03C21074BD1
:102CA0001B689B01A020C005844663441A60D9615B
:102CB0007047C04654910020F81200208820002060
:102CC00010B5104B1968A022D2050F4BD258012322
:102CD0008B40134212D0A021C9050B4A8B500B4ADE
:102CE00013881BB201331BB21380782B07DD13004E
:102CF000012252421A80064B00221A7010BDFFF7C3
:102D0000ADFFFBE7882000200C040000F812002033
:102D10005EAF002010B5FFF79BFF002800D010BD6C
:102D2000044B01221A70044B00221A80FFF796FF11
:102D3000F5E7C0465EAF0020F8120020F0B5C646A9
:102D400000B588B004000D003D4F3E49386805F0DD
:102D5000C5FC06001022002104A805F04DFA8023CE
:102D60005B020493F8235B0205938023DB02069346
:102D7000C0231B03069332001232F30112031343E4
:102D800005938022D205904607922F4A134042466F
:102D900013430593012300930133072229002000E8
:102DA00005F054FD294B0493069B0393284B039A8B
:102DB00013400693079B0393264A1A40264B13435E
:102DC0000793264A1340C022520113430793C0239E
:102DD00000222900200005F09DFCC023C02229000C
:102DE000200005F0E5FC069B03939B009B084246F0
:102DF000134306933A681A4B9A421CD007210720C6
:102E000000F092FB0E4B1A68154B9A4215D0072121
:102E1000062000F089FB04AB32002900200005F0F9
:102E200067FD22680123AB409A431343236008B037
:102E300080BCB846F0BD0621E1E70621E8E7C046C0
:102E4000F4120020D0910410FFFFFF9F0001020048
:102E5000FFFFF5C1E0FF0FFC07001000FF83FFFF3D
:102E60000000205010B504F0C5FD084904F05FFDD6
:102E7000074904F0DBFF074904F06FFDFC218905D9
:102E800004F050FD04F010FE80B210BD0000C842F6
:102E90003333334000FF7F4710B5FFF7E3FF044BA8
:102EA0001B6858400004000C024B186010BDC0465F
:102EB0008400054084100540F0B5C64600B5050005
:102EC0008846264B1F68380004F094FD011C2448F6
:102ED00004F02DFD041C280004F08CFD011C201CB6
:102EE00004F025FD061C04F0DFFDC4B2200004F050
:102EF00087FD011C301C04F010FD8321C90504F07E
:102F00002CFD04F0D1FDC0B224010443154A94669F
:102F10003B041B0C536728007843134903F068FBFC
:102F20000500404604F066FD104904F000FD10491C
:102F300004F07CFF041C280004F05CFD211C04F05C
:102F40000CFD04F0B1FD00040A4B1B685840000C56
:102F50000004094B186080BCB846F0BDFC1200208C
:102F6000286B6E4D00000540102700000000C8428D
:102F70006666E63F700005407010054030B583B0CE
:102F80000D0014006B46D91D0870D0231B062022AB
:102F90009A61E132FF329A6101220A4845F024FF2A
:102FA000002C09D0D0231B06802292005A612A00EF
:102FB0002100044845F018FFD0231B0620225A6147
:102FC00003B030BD00C00340D0231B0658687047D3
:102FD00000B585B001F004F9064B0293002301937C
:102FE000054B0093054A01235B4201F03FFA05B00F
:102FF00000BDC046881E00201D2B001018FCFFFFDE
:10300000F0B5DE4657464E464546E0B58DB0002247
:1030100009920A920B9210230A93DC480B90DC4B26
:10302000882158509A6780201A5004301A500B9A01
:1030300001925A500A9ADA67012209990A439A675B
:103040000421783800F070FA0020FFF725FF0D20EA
:1030500002F090F80A2001F0FFFA05AB04AA03A9D8
:10306000CC4800F00FFA002803D1CA49CA4802F040
:103070006BF9059A0499039800F0C8F91720FFF737
:1030800052FD0220FFF76BFD05F044FD1F211A20C1
:1030900000F04AFA002200211A2000F05DFA002117
:1030A0001A2000F073FABA4C9C239846B74B994605
:1030B00043464A46E2508C270025E551083B9B4693
:1030C000E55004339A46E5500B9B01934346019A21
:1030D000E2500A9B019390230199E1500126099B3C
:1030E0003343E35104210E2000F01EFA88234946A1
:1030F000E150A5678022A5500432A5500B9901919B
:10310000E1500A990191E167099B3343A3670421C8
:103110000D2000F009FA414648466050E5515946F5
:103120006550514665500B99019141460198605098
:103130000A9B9022A350099B3343E35198390F20F7
:1031400000F0F2F99549964805F0AAFC0521042003
:1031500000F0EAF9D02424067C3F6762A76164206E
:1031600001F07AFA67610521092000F0DDF980237A
:103170009B00994663620521052000F0D5F92023C4
:10318000984663620121062000F0CEF90121072054
:1031900000F0CAF943466361002200210120FFF7D5
:1031A000EDFE052001F058FA7E4A01213620FFF796
:1031B000E5FE7D4F3A0001213520FFF7DFFE3A1D85
:1031C0000521B220FFF7DAFE784A01213A20FFF705
:1031D000D5FE774B9A461A0001212620FFF7CEFE36
:1031E000744A0121B720FFF7C9FE734A0121BB20B1
:1031F000FFF7C4FE714A0121C020FFF7BFFE52460F
:103200000121C220FFF7BAFE6D4A0121C320FFF75A
:10321000B5FE6C4A0121C420FFF7B0FE6A4A0221C4
:10322000D020FFF7ABFE694A0121C620FFF7A6FEBA
:10323000674A0E21E020FFF7A1FE664A0E21E12039
:10324000FFF79CFE002200212120FFF797FE73204C
:1032500001F002FA002200211120FFF78FFE002268
:1032600000212920FFF78AFE0C373A0004212A208A
:10327000FFF784FE3A0004212B20FFF77FFE002297
:1032800000212C20FFF77AFE4346A3614B46636181
:10329000082000F093F980235B00A3624E4C4F4F4F
:1032A00021683868FFF74AFD4D4B1D604D4B0822E1
:1032B00013431E438023DB031E43396823684A4AB5
:1032C000914258D008229B183F2B56D8474A1640A7
:1032D000DB031E43424C41483F490B681A1D9200D4
:1032E00003689C46624423689B01A025ED05AC461B
:1032F000634400251D605A609D601E6122680123A1
:1033000093403B4A136002680868374B9A423AD0B0
:103310000823C018012100F029FA36490B2000F0DB
:1033200035FA01210B2000F021FA002206920792C3
:10333000089210230793154B0893154B5A66DA66CB
:103340001A67089A01925A67079A9A6601220699A3
:103350000A435A6604210B2000F0E6F8264B1B684E
:103360001B0C1B04254A13600DB0F0BCBB46B246D3
:10337000A946A046F0BD0022A5E7214B214AB52170
:10338000214801F047FF0023C3E7C046FFFF0000CC
:103390000000054090D00300D090041000127A0085
:1033A00000C003408C900410BC9104109090041055
:1033B00094900410989004109C900410A090041015
:1033C000A4900410A4820510A8900410AC900410DE
:1033D000B0900410C090041080950020F4120020DA
:1033E0008820002010801F0000002050FF7FE0FF99
:1033F00004240050C12C00107000054070100540DE
:10340000049104101891041050910410F0B583B089
:1034100004000D00160000F0DDF8002801D003B014
:10342000F0BD154F00973B0001220121053001F04E
:1034300007FD00962B0022000121104801F00AFE32
:1034400031006943200003F0D3F804000C4B0093D3
:1034500000220221042001F0F3FC0094230000224A
:103460000121052001F0ECFC00973B000222002125
:10347000062001F0E5FCD2E7006CDC02008002408F
:10348000001BB700F0B5DE4657464E464546E0B550
:1034900083B080468B4692460193A0235B009946F9
:1034A0002AE0013C002C1ED025007D43290030007D
:1034B00003F09EF84045F4D12900300003F098F85D
:1034C0000029EED1144B4A4653435A4613605346E3
:1034D0001F60019B1C60012003B0F0BCBB46B246DC
:1034E000A946A046F0BD013F002F01D03C00D9E71E
:1034F00001235B429C46E1444B460F2B09D9074E02
:103500004B465E43064BF218064B9A42F0D807270B
:10351000EAE70020E0E7C046001BB700E02E00000D
:10352000508EF4FF50F80C0010B58300084A944602
:1035300063441C6840226240C0241440802252012F
:1035400013431C60C000034B9C466044416010BDA7
:1035500004C001400040014080000B4B9C46604489
:1035600000290DD00823002A0CD00422134302683E
:1035700053400C22134080225201104303607047D5
:103580000023F0E70022F1E704C00140002909D040
:103590008000094B9C46604480239B0118434023D4
:1035A000036070478000044B9C466044C0239B012D
:1035B000184340230360F4E704C0014010B5012321
:1035C0008340D0221206936293610521FFF7ACFF7E
:1035D00010BD0000034B1B6802201840431E984199
:1035E000C0B2704700C00640EFF3108072B6034BC4
:1035F0001B68002BFBD0BFF35F8F70472C0100D0FE
:10360000BFF35F8F024B00221A6080F3108870476F
:103610002C0100D0F8B506000C001500FFF7E4FF00
:10362000E308F718F15C07222240012393400B4284
:1036300005D1DBB20B433B70FFF7E2FFF8BD210081
:10364000280001F081FE0000002307E0054A9A18D7
:103650009200BFF35F8F0021116001331F2BF5D95A
:103660007047C04640000034054A1078431CDBB266
:103670001370172B02D9130010221A707047C0461E
:1036800000130020074B9B68103080001950BFF3D7
:103690005F8FBFF35F8F044B0021196082F31088A6
:1036A0007047C04600ED00E0240100D010B5091AB3
:1036B000081F0A4B9C466144094A914208D8C30737
:1036C00006D440104005400D064B184380B210BD93
:1036D000054B064AA321064801F09CFDFC070000AB
:1036E000FE0F000000E0FFFF60150510D017051069
:1036F0009015051010B5091A04394C08090B08D1AA
:103700004905490D064A11430180064B2343438076
:1037100010BD054B054AAB21054801F07BFDC046B5
:1037200000F0FFFF00F8FFFFEC150510A4170510CF
:103730009015051001238340034A10681840431E6A
:103740009841C0B27047C04600E100E0002904D0B3
:10375000034B1860034B18607047034B1860FBE77E
:1037600080E200E000E100E080E100E010B501232C
:1037700083401800FFF7EAFF10BD0000024B9B6872
:1037800010308000C058704700ED00E070B50400B4
:103790000D00EFF3108672B60C4B1B68002BFBD0AC
:1037A000BFF35F8F2000FFF7E9FF094B984201D07C
:1037B000A84205D1320029002000FFF763FF70BD49
:1037C000044B054A8621054801F024FD240100D060
:1037D000CD010010FC150510EC1705109015051013
:1037E000F0B5CE46474680B583B006000D00EFF336
:1037F000108872B6564B1B68002BFBD0BFF35F8F4F
:10380000544B9A6834001034A300D758524B9F424F
:1038100007D0AF4200D198E00197504BFB1A2F2BF5
:1038200009D9424639003000FFF72CFF03B0C0BC75
:10383000B946B046F0BD3000FFF77CFF814600215D
:103840003000FFF793FFBFF35F8FEFF3058100298F
:1038500001D08C4211D10123019C9C430022A3681A
:10386000AB4212D00622A256002A0DDB53009B1851
:103870009B002200394CE418F1E73621384B394AD5
:10388000FF31394801F0C6FC2200AB4256D1062573
:103890006557002D38DB6B005B199A002F4B9B1886
:1038A0009A68A260DA79E27106229A56A2719B792F
:1038B0005BB2002B0FDA2D48A0806B005B199B00D8
:1038C000264AD3182A4A1178997115704946300052
:1038D000FFF74CFFA5E7201D6B005B199B001F4AFB
:1038E0009B181A1D9B88D90A1C2907D15B055B15FB
:1038F000023359005118FFF7D9FEDDE71D4B1E4A70
:10390000B121194801F086FC002912D1002A0ED0FD
:10391000FF239371194B9380154A1378A371184BA9
:103920000E49641A644163431B0D1370CEE70A4FBE
:10393000F2E7201D1349FFF7DDFEC7E76A21124BAE
:10394000084AFF31084801F065FC034F69E7C046AB
:10395000240100D000ED00E0CD0100100413002090
:1039600010170510BC1705109015051001BD0000BB
:1039700061AF0020F8160510DC17051001BDFFFF30
:10398000AAAA00003E1300204417051070B50121BB
:1039900001432E4BCB1A2F2B28D8EFF30583002B96
:1039A0002BD0EFF3108C72B6294A1268002AFBD094
:1039B000BFF35F8F274A0400244D641B64416243B8
:1039C000120D54B2244A92689B00D2588A421BD0EE
:1039D0000022032A32D853009B189B001B49CB18A6
:1039E0009B795BB2A3421FD00132F2E7C7211B4B88
:1039F0001B4A49001B4801F00DFC92211A4B184A42
:103A0000FF31184801F006FC134A92681749D1505B
:103A1000174B1A7882711C70BFF35F8F0C4B00221A
:103A20001A608CF3108870BD0D005300991889003E
:103A30006918FF268E710F4A8A80E9E7D1210E4B63
:103A4000074A4900074801F0E5FBC046041300207F
:103A5000240100D0AAAA000000ED00E04C170510D8
:103A6000881705109015051074170510CD0100106A
:103A700061AF002001BDFFFF801705100022044B3D
:103A800002E0044902C30132072AFAD97047C0464E
:103A900000E400E080808080024B9C466144890005
:103AA000016070474000003410B50400FFF7DCFDF2
:103AB00001002000FFF7F0FFFF232371BFF35F8FAA
:103AC00010BD10B50400FFF7CFFD01002000FFF787
:103AD000E3FFFF23237100236371BFF35F8F10BDEA
:103AE00010B50C00CB68834207D108000B699847DA
:103AF000002809D02068616810BD5221054B064A94
:103B0000FF31064801F086FB0023E360002000211E
:103B1000F2E7C046D4180510701B0510E818051010
:103B200070B505000C00080000F04AFF09492000AC
:103B300000F08AFEFFF798FD074B9C46604480002A
:103B400068602C75D0231B061B786B75A400034B93
:103B5000E55070BD653E00104000003400AD00200F
:103B60000A4B1A68EFF3108172B61368002BFCD071
:103B7000BFF35F8F054B1B68BFF35F8F00221A6096
:103B800081F3108840BF00200021704740AF002023
:103B900010B5002922D003681B7B99421ED8174B11
:103BA0009C466144090183689C4661440C684968ED
:103BB000002A19D003681B7B9A4215D883680F48E6
:103BC0008446624412019A1810685368020001206A
:103BD0008B4201D80ED00020C0B210BD084B094A5C
:103BE0003C21094801F016FB054B064A3C210648DA
:103BF00001F010FBA242EFD8EDE7C046FFFFFF0F38
:103C00003C190510D81B0510E818051010B500293F
:103C10001ED0037B99421BD84B005B18033B046802
:103C2000A4466344002919D0002A1DD0914221D016
:103C3000002A25D0047BA24222D8046850008018B4
:103C4000033820188170197800291FD11A7010BD0F
:103C5000104B114A6821114801F0DCFA104B114A4F
:103C60006F310E4801F0D6FA0F4B0E4A70210B4807
:103C700001F0D0FA0D4B0B4A7121084801F0CAFA45
:103C8000044B054A6821054801F0C4FA41701A70D6
:103C9000DDE7C04660190510441C05107C190510AD
:103CA000E4190510201C0510F0190510FC19051069
:103CB00070B506000D001400002914D0002A14D09D
:103CC000806873689847002806D0220029003000D9
:103CD000FFF79CFF280007E02A0021003000FFF7D3
:103CE00095FF200000E0100070BD0800FCE7000018
:103CF000F0B583B00500009201930AAB1C780BABC2
:103D00001F78002C26D003685A7B944207D10123E8
:103D1000002B19D1002C3BD1200003B0F0BD002CAA
:103D20000CD01A7B944209D81A6863001B19033B14
:103D3000D3189B78002BEBD00123E9E73E4B3F4A99
:103D400068213F4801F066FA3E4B3F4A67213F48F1
:103D500001F060FA03689C7B002CDBD012D01A7B48
:103D600094420FD862001219033A19688C466244D3
:103D700051789973002900D1D9730023937053703F
:103D80001370C7E72C4B2D4A68212D4801F042FAE9
:103D9000002C3AD02B681B7B9C4236D82C4BE31866
:103DA0001B01AA6894466344009A1A60019A5A60FB
:103DB000089A9A60099ADA602E68002C2BD030D0CD
:103DC000337B9C422DD863001B19033B3268944619
:103DD000634400229A705A701A70717B220030007E
:103DE000FFF766FF7073844200D095E7287D009A44
:103DF000019B00F071FD061E01D0002F17D00C9B17
:103E0000002B00D188E71E7086E7124B124A3C2136
:103E10000E4801F0FFF9114B114AA521084801F0A5
:103E2000F9F9054B054A6821054801F0F3F92868BE
:103E3000210000F089FFE2E760190510441C05101D
:103E40007C190510141A0510501C0510E8180510EF
:103E5000FFFFFF0F3C190510D81B0510E4180510D3
:103E6000341C0510F0B5DE4657464E464546E0B5D3
:103E70008BB00990002308938200B54BD6583700C9
:103E800052E0B44BB44A3F21B44801F0C3F9B44BFB
:103E9000B44A3C21B44801F0BDF9002901D1002801
:103EA00069D10021404600F045FFA04219D12A689F
:103EB0006B6806920793AB689846EB689A46434650
:103EC000002B14D0002C18D03B681B7B9C4214D8CC
:103ED000631EFA68D35C08931B0218433861002004
:103EE00015E0A24BA24A8E219F4801F093F9A14B05
:103EF0009F4A92219C4801F08DF9994B9E4A41219D
:103F0000994801F087F900239A46984600207B687B
:103F1000BFF35F8F00221A6086F310884346002BA0
:103F200032D1002800D10CE100F04AFC02000B1E47
:103F3000A7DB00200021069007917868EFF3108638
:103F400072B601680029FCD0BFF35F8F39688846DC
:103F50004C7B002CD7D09AD0097B8C4297D88749CC
:103F600065182D01B9688C46654428686968801A0F
:103F70009941002991DD2A686B68099800F0ACFC32
:103F800000239A469846C2E7089B1B0223439946A2
:103F900051461800C04705000E007A68EFF3108BF9
:103FA00072B6136859424B41D9B2002BF9D1BFF315
:103FB0005F8F002E1EDB002E46DD3B69002B47D0B5
:103FC0004B456DD100F0FCFB02000B1E6EDB52195D
:103FD0007341002B70DB002B72DB00210491013157
:103FE0000391029451460191414600913800FFF738
:103FF0007FFE4CE03B69002BDDD04B4514D1069A87
:10400000079B521BB341002B14DB002B16DB002156
:10401000049101310391029451460191414600916E
:104020003800FFF765FE32E0554B514AA1214E485A
:1040300001F0F0F801225242524BE6E7454B464A66
:104040003F21464801F0E6F8002E01D1002DB4D101
:104050003B68002C50D05A7B944237D10121002973
:104060004AD1DA7B002A4DD19A7B002A03D1DA7B30
:10407000002A5AD19C73DC73002C5CD03B681B7BFC
:104080009C4258D8FA68013C135D01331355002354
:104090003B617A68BFF35F8F13608BF3108843E74F
:1040A000374B334AA421304801F0B4F8294B2A4A4F
:1040B0003F212A4801F0AEF801225242314B8AE7F3
:1040C000244B254A3F21254801F0A4F8002C0DD0AF
:1040D0001A7B94420AD862001219033A186884467F
:1040E00062449278002ABAD00121B8E7264B274AC9
:1040F0006821274801F08EF8264B274AF6212448EC
:1041000001F088F8002A0AD0197B8A4207D85100AA
:104110008A18033A19688C4662445470A4E71A4B13
:104120001A4A68211A4801F075F81C4B1A4AFB21FB
:10413000174801F06FF80A4B0F4A41210A4801F075
:1041400069F80BB0F0BCBB46B246A946A046F0BD2C
:1041500000AD0020D48F0410A41B0510289004107B
:104160003C190510D81B0510E81805103C1A05105D
:10417000BC1B0510541A0510FC1B0510FFFFFF0F98
:10418000601A0510FFFFFF7F60190510441C051021
:104190007C1905109C1A0510101C0510C01A05107A
:1041A00010B50C4B5B68002B04D00A210A48FFF7BE
:1041B00073FC10BD074C2300084A1021206800F052
:1041C000C9FC032000F0F0FA03212000FFF7A8FC4F
:1041D000EBE7C0464C13002040AF0020913B00109D
:1041E00010B5064B5B68002B01D0044810BD044B92
:1041F000044A5E21044801F00DF8C0464C1300202B
:10420000D41A0510E41B0510E8180510F0B5DE46B9
:1042100057464E464546E0B58BB0804616001F0017
:10422000149B9A46159B994616AB1B789B461F23F9
:1042300002AA9446634400221A702BE0002809D099
:1042400042461268127B904204D8421E4146C96819
:104250008A5C41E0404B414A4121414800F0DAFF8D
:1042600007984CE0361BAF41002F07DB002F11DA17
:104270003C4B3D4A3F213D4800F0CCFF01267642B1
:104280003B4FF3E7374B384A3F21384800F0C2FF35
:10429000002F4FDB43465A68EFF3108472B6136861
:1042A00059424B41D9B20791002BF8D1BFF35F8F30
:1042B0001F3302AA9446634404930023039302939A
:1042C0004B4601935346009332003B004046FFF7B4
:1042D0000FFD031EB2D1020041464968BFF35F8F54
:1042E00000250D6084F31088002B29D01F2302A91C
:1042F0008C4663441B78002BB2D112021043002B72
:1043000020D05B46002B1DD04946D04704000D004D
:1043100003000B431DD00029A4DB00F051FA060076
:104320000F1EAFDB36196F41002FB1DA012676423E
:104330000F4FADE70B4B0C4A3F210C4800F06AFFD2
:10434000012040420BB0F0BCBB46B246A946A04695
:10435000F0BD0798F6E7C0463C190510FC1B051098
:10436000E8180510D48F0410A41B05102890041021
:10437000FFFFFF7FF8B50400002900D162E042682A
:10438000EFF3108572B6136858424341D8B2002B40
:10439000F9D1BFF35F8FCBB22268567BB3421BD1FA
:1043A0000120002848D0206988422BD0090AC9B2D0
:1043B000002B2ED02068007B83422AD8581EE66846
:1043C000305C88422BD000206368BFF35F8F0022EF
:1043D0001A6085F31088F8BD002B0DD0167BB34210
:1043E0000AD85E00F618033E1768BC466644B678E5
:1043F000002ED6D00120D4E7134B144A682114486C
:1044000000F008FF2C21134B134AFF31134800F032
:1044100001FF134B134A4121104800F0FBFE190025
:10442000100000F091FC0028CED199210E4B0A4AD1
:1044300049000A4800F0EEFE23698B42C4D10023F4
:104440002361C1E70020C6E760190510441C051070
:104450007C190510F81A05108C1B0510E8180510BA
:104460003C190510FC1B05101C1B0510F0B585B090
:104470000700100019000C9E13000B4301D101200E
:104480000021B7600A9B3361306071600B9B7361E0
:10449000CA1713005040040051400D00A41A9D415A
:1044A00000F08EF902000B1E12DB12196B41002B7B
:1044B00014DB002B16DB0121029101960C490091BF
:1044C0003800FFF7A3FEF060C043C00F05B0F0BD99
:1044D000084B094A3F21094800F09CFE0122524244
:1044E000074BE6E7034B044A3F21044800F092FEE5
:1044F000E13A0010D48F0410A41B0510289004107A
:10450000FFFFFF7FF0B587B006000F00EFF30583D4
:10451000002B1FD106246442E517A4197D418D426A
:1045200002D803D1844201D900240025002D14DBD8
:104530000494059500F044F902000B1E13DBA41A45
:104540009D41002D17DC14D03000390000F044F9F3
:1045500007B0F0BD234800F0F7FE234B234A3F216C
:10456000234800F057FE204B204A3F21204800F00E
:1045700051FE002CE8D0FFF733FE00230293019395
:104580001C4B0093049A059BFFF740FE002818DAA5
:10459000DAE7002300E00023002BD5D1164B1A6880
:1045A000EFF3108172B61368002BFCD0BFF35F8F5E
:1045B000114B1B68BFF35F8F00221A6081F31088D4
:1045C00020BF0499059A0D4B5B6A9A42E3D80B48C9
:1045D000806A884203D29A42DBD00123DCE70123C0
:1045E000DAE7C046201B0510D48F0410A41B051069
:1045F00028900410613B001040AF002000400540AF
:1046000070B504000D0000F0DBF802000B1E0ADBA1
:10461000200029008018594100290ADB00290CDB01
:10462000FFF770FF70BD084B084A3F21084800F0B3
:10463000F1FD012040420749F0E7034B034A3F21C7
:10464000034800F0E7FDC046D48F0410A41B0510FA
:1046500028900410FFFFFF7F10B5FA22920000237C
:10466000002103F03DF9FFF7CBFF10BD70B584B01A
:1046700005000C00EFF30583002B1ED1FFF7B0FD02
:10468000002302930193224B00932A002300FFF79B
:10469000BDFD061E23DD20BFFFF7A2FD3100FFF7A1
:1046A00069FE1C4B5B6A9C422DD81A4A926AAA4248
:1046B0002CD29C4225D0012026E0164B5B6A994201
:1046C00009D8144A926A824207D2994201D0012045
:1046D0001AE0002018E0002016E0012014E00D4B45
:1046E0005B6A9C4209D80B4A926AAA4207D29C4252
:1046F00001D0012008E0002006E0002004E00120B5
:1047000002E0002000E0002004B070BD0120FBE7C3
:10471000613B00100040054070B5EFF30580103894
:10472000EFF3108C72B61A4B1B68002BFBD0BFF353
:104730005F8F01221300834016494B6316490B60BB
:10474000164909780C00C440224214D0114A546A18
:104750008200134D5259944206D38200114C1259D3
:1047600099430E4B197007E00A4A031D9B009958A4
:104770009950002200E00022BFF35F8F044B00211C
:1047800019608CF31088002A00D0904770BDC04695
:10479000280100D0004005403C70054065AF002076
:1047A00044AF0020C4AB002010B50100024A03480A
:1047B000FEF730FF10BDC046701C051060AF002032
:1047C000044B5B6A034A906A1900536A9942F9D113
:1047D0007047C04600400540084B5B6A01E0074B4C
:1047E0005B6A8B42FBD301E0044B5B6A8B4203D1D3
:1047F000024B9B6A8342F7D37047C0460040054096
:1048000070B504000D00FFF7DBFF02000B00200075
:104810002900801859418B4202D804D1824202D922
:1048200001204042C117002902DBFFF7D5FF70BD10
:10483000024B034A3F21034800F0ECFCD48F0410E4
:10484000341D05102890041070B504000D00EFF31E
:10485000108672B61B4B1B68002BFBD0BFF35F8F1B
:10486000002D1CD02000FEF789FF174B83420BD090
:1048700019002000FEF78AFF01212000FEF776FFD5
:104880000123A340114A1360A400114BE550BFF36C
:104890005F8F0C4B00221A6086F3108870BDA20057
:1048A0000B4B0021D1500122A2400A490B789343BF
:1048B0000B7005492000FEF793FF00212000FEF752
:1048C00055FFE4E7280100D0194700103860054083
:1048D000C4AB002065AF0020F0B5DE4600B584B063
:1048E0000400150001921E000293FFF769FF039573
:1048F0008E4202D84ED185424CD9EFF3108B72B65E
:10490000274B1B68002BFBD0BFF35F8F254A17781E
:104910000125A540EBB23B431370234B5D63221D81
:1049200092000199D150A2002049029850501B6A70
:104930002B4212D11C4B1B6C2B4208D00020BFF322
:104940005F8F174B00221A608BF3108823E0184BFF
:10495000184AC521184800F05DFCFFF731FF8E4270
:1049600014D802D1039B834210D80E4B1B78BB4254
:104970000ED00D4B1D625D631F2004400123A34038
:104980000E4A1360074B1F701E38D8E70020D6E789
:104990000120D4E7012004B080BCBB46F0BDC04676
:1049A000280100D065AF00200040054044AF002042
:1049B000941C0510181D0510B81C051080E200E0BD
:1049C000EFF3108C72B60B4B1B68002BFBD0BFF3C0
:1049D0005F8F01238340084A136208490A789A438B
:1049E0000A70BFF35F8F034B00221A608CF31088AC
:1049F0007047C046280100D00040054065AF002048
:104A000010B500291ED0037B99421BD84B005B18C0
:104A1000033B0468A4466344002919D0002A1DD032
:104A2000914221D0002A25D0047BA24222D80468DA
:104A300050008018033820188170197800291FD180
:104A40001A7010BD104B114A6821114800F0E2FBAA
:104A5000104B114A6F310E4800F0DCFB0F4B0E4A31
:104A600070210B4800F0D6FB0D4B0B4A7121084812
:104A700000F0D0FB044B054A6821054800F0CAFB52
:104A800041701A70DDE7C04660190510541E05100C
:104A90007C190510E4190510401E0510F0190510C9
:104AA000FC19051070B506000D001400002914D083
:104AB000002A14D0806873689847002806D0220026
:104AC00029003000FFF79CFF280007E02A002100A2
:104AD0003000FFF795FF200000E0100070BD0800D7
:104AE000FCE7000010B50023437301338373037B9D
:104AF000C3730123027B9A4214D9002B0CD0027B92
:104B0000934209D85A00D218033A01688C4662448D
:104B10000133DBB25370EDE70B4B0C4A68210C48B4
:104B200000F078FB002A09D0924207D801685300B0
:104B30009A18033A8A180023537010BD024B034A97
:104B40006821034800F066FB60190510541E05102B
:104B50007C19051010B5017342608360FFF7C2FF36
:104B600010BD000070B50400081E00D170BD002902
:104B700034D0237B994231D84B005B18033B226829
:104B8000944663445A78002AF0D02DD0237B9A4271
:104B90002AD853009B18033B21688C4663445D78F8
:104BA00000215970002825D0237B984222D8430049
:104BB0001B18033B21688C46634400215970010097
:104BC0002000FFF76FFF060029002000FFF7CAFF53
:104BD000020031002000FFF765FFC7E7084B094AD4
:104BE0006821094800F016FB054B064A6821064873
:104BF00000F010FB024B034A6821034800F00AFB57
:104C000060190510541E05107C19051070B50500BB
:104C10000C00160000292FD034D0037B994231D8E4
:104C20004B005B18033B0268944663445A78002AA1
:104C30002ED19A78002A31D11978FFF793FF03001B
:104C4000002E0AD0EA7B002A2ED1AA7B002A03D1AB
:104C5000EA7B002A3BD1AC73EC73002B3DD1002CD6
:104C60004FD02B7B9C424CD82B6861000C19033C25
:104C70001C190023637070BD254B264A3821264835
:104C800000F0C8FA254B264A6821264800F0C2FAEF
:104C9000254B204A3A21204800F0BCFA234B1D4AFC
:104CA0003B211D4800F0B6FA002A0AD0297B8A422F
:104CB00007D851008A18033A29688C466244547018
:104CC000C3E7164B164A6821164800F0A3FA184BA2
:104CD000104A4221104800F09DFA002B0BD02A7B8D
:104CE000934208D843001B18033B2A689446634448
:104CF00000229A70B3E7094B094A6821094800F07D
:104D000089FA064B064A6821064800F083FAC04635
:104D10004C1D05102C1E0510541D051060190510A2
:104D2000541E05107C190510A81D0510D01D051076
:104D3000C01A051070B504000A00457B2900FFF772
:104D400065FF6073280070BD70B50400002967D04E
:104D5000437B8B420ED0002911D0037B99420ED8A1
:104D60004B005B18033B0268D0188378002B0CD1F2
:104D7000002056E00121FFF7DDFF012051E0294B23
:104D8000294A6821294800F045FA002B20D0227BCF
:104D900093421DD85A00D318033B2268D2182568C5
:104DA000EB5C8B421AD0002B1BD0227B934218D88D
:104DB0005A00D318033B2268D21853788B4216D07E
:104DC000002BF0D11A4B1B4A6B211B4800F022FA32
:104DD000144B154A6821154800F01CFA43781370EB
:104DE00007E0104B104A6821104800F013FA43788E
:104DF000537000238370437001222000FFF706FFE9
:104E00000200617B814205D02000FFF74BFE6073FA
:104E1000012006E0094B074A7121074800F0FAF922
:104E2000002070BD60190510541E05107C19051076
:104E300080170510141E0510541D0510F41D0510D3
:104E4000F8B5DE4657464E464546E0B505000F002C
:104E500092460A9A934250D31A0E91461E020A9A1B
:104E600000233000494601F001FC80466C006419C3
:104E7000A400304B9C4664446368834200D2606067
:104E80002B1FDBB29B46012B3DD9C0239B01234343
:104E9000802212011A60AB00274A9958002907D0D6
:104EA000506901F0A5FB431C5800C0180338FDD21F
:104EB00053465A0123685A40E0231A4080235B017D
:104EC00023431A605A46012A28D980239B01234391
:104ED000802212011A60434663604246002330007C
:104EE000494601F0C3FBAD00134B58510120F0BC03
:104EF000BB46B246A946A046F8BD104B104A332126
:104F0000104800F087F9012FBFD1C0239B01234334
:104F100003221A60A368DB07FCD5C9E72168794042
:104F200003220A401A60A2680123BB401342FAD050
:104F3000CBE7C04600800040F8AB0020601E0510A3
:104F4000D41E0510741E051030B583B00C2000F07F
:104F50001FF9FEF73FFB00280DD0002304E0990065
:104F60002D4A2E4888500133092BF8D92A4B2C4A58
:104F70005A6203B030BD2B4B00229A6700F010F943
:104F8000294B01221A60274B5B6C012BFBD1274B6D
:104F900003221A60234B9B6B012BFBD1013300933F
:104FA0000433234A0121234800F054F805230093D9
:104FB000214A0121214800F04DF8214B00930022A5
:104FC00002210420FFF73CFF1E4D00952B0000221C
:104FD00001210520FFF734FF104C0094230000222C
:104FE00000210720FFF72CFF00942300002200215E
:104FF0000820FFF725FF0A4B009323000022002121
:105000000920FFF71DFF00952B000022002106203C
:10501000FFF716FFADE7C046F8AB0020006CDC02DE
:105020001BB70000008000403CB0004030B00040A2
:10503000002F685900800240008C864700C0024063
:10504000001BB700405973078000014BC0587047E0
:10505000F8AB0020F0B5C64600B504000E001700FE
:105060001D00374801F0C4FA8046364BFA18364B1B
:105070009A4239D80100380001F0BAFA0200103A19
:1050800098235B009A4235D86B1E062B38D8069BB6
:10509000013B062B34D83F09474537D32D04069BE7
:1050A0001A0315432368002B36DB284B9C4244D05F
:1050B00080225201264B1A60264B1A60264B9B68B1
:1050C00011009943FAD12660A060231DC0229201ED
:1050D0001A43212313602368002BFCDAE5600823C0
:1050E000136080BCB846F0BD1C4B1D4A11211D4801
:1050F00000F090F81C4B1A4A19211A4800F08AF85F
:105100001A4B174A1C21174800F084F8184B144A10
:105110002321144800F07EF822683F231340B34255
:10512000C3D1A3681B051B0D8342BED1E368EE22E9
:10513000D2021340AB42B8D1D3E780229201B9E743
:10514000001BB70080E84BD380F8A93200C00240B2
:1051500000E0004000F0004000C00040E41E0510E8
:1051600024200510441F0510A01F0510BC1F0510AA
:10517000082005100001044B1B685840F02318401C
:10518000024B18607047C046004006400050064081
:1051900080239B000343014AD3627047008005408F
:1051A000064BAA2212011A602F22DA60044B054A2C
:1051B0001A60024B5B68002BFBDA7047004002402C
:1051C0000060024000B0FA0000BEFDE703000A4A9A
:1051D0001268002A08D0084A1068C318074A9A4281
:1051E00006D3054A13607047034A05491160F2E788
:1051F00001204042F7E7C04690AC002000000420A8
:1052000068AF00200020704701204042704710B571
:10521000FFF7DAFF10B582B00C001900002A0CD09D
:10522000084B002A0BD0019200932300020006488D
:1052300003F0B0F90120FFF7C7FF044BF1E7034A81
:10524000F1E7C0463020051040200510C05205107F
:1052500070B52B4B2B4A1A602B4B2C4A1A602C4BE7
:105260009A682A4B9343FAD12A4C01E008CC98471C
:10527000294B9C42FAD3FFF767FE234B274A1A605B
:10528000234B9B68DB43DB01FAD1254B40229A6715
:105290005A671A67DA66234C09E0234B234A8721B1
:1052A0002348FFF7B7FF2000FEF7FEFB0834214B31
:1052B0009C4209D22368002BF5D0012BEDD12000B0
:1052C000FEF7FFFB0834F2E71B4CA1681B4DC02220
:1052D000280002F097FFA560EFF30583002B00D0B4
:1052E00000BEFEF7B1F9FEF7C9FBFEF759FF144CFB
:1052F00001E008CC9847134B9C42FAD370BDC046DE
:1053000000E00040BFCDFBFE00F00040FE7F3C000F
:1053100000C00040501E0020601E0020FFFFFF0163
:1053200000F00140481E00207020051000210510EB
:1053300090200510501E002000ED00E0000000202D
:10534000601E0020881E00200FB400B583B00848FE
:1053500003F0F0F8049B002B07D005A90191180079
:1053600003F0F8F8034803F0E5F80120FFF72CFFFD
:10537000F0200510C05E05109A4200D28854704794
:10538000704710B5002802D00B684968984710BDD7
:105390000100002007E083001B185B00501C086020
:1053A0001078C01830380A681378303BDBB2092B0C
:1053B000F1D97047F0B5DE4657464E464546E0B552
:1053C00083B093461F000C9B9A460D9C0E9B9946FA
:1053D0000F9B9B0703D0B8460F00060022E0019206
:1053E000A34688464E46B9460700B44207D2551C2C
:1053F0004B4641462020B84701342A00F5E73D00DE
:105400004F465C46019B9B46B1464646B846370030
:105410002E0007E0013C551C5346185D43463900F9
:10542000B0472A00002CF5D135003E0047460F9BBF
:105430009B0707D4100003B0F0BCBB46B246A94698
:10544000A046F0BDB0464E46B9462F005D46531B00
:10545000B342EFD2541C4B4641462020B8472200AD
:10546000F5E7F0B5CE46474680B585B094469846F8
:105470000C9D0D9C0EAB1B789946109A119B129EA9
:10548000B7071CD4002B0CD0F7070AD54F46002FC6
:1054900002D10C37374204D0013B02E030272F55B0
:1054A0000134944201D21F2CF8D9F70707D59C424A
:1054B00005D21F2C03D830272F550134F5E7F70606
:1054C00015D5770505D4002C03D0944224D09C42F6
:1054D00022D00F9A102A2BD00F9A102A30D00F9A70
:1054E000022A35D01F2C02D830222A5501341F2C15
:1054F00005D84A46002A31D02D222A550134039678
:1055000002930194009543466246FFF753FF05B0AE
:10551000C0BCB946B046F0BD621E012C06D00F9F3C
:10552000102F01D01400D4E7023CD2E71400D0E7DA
:10553000B206D1D41F2CCFD878222A550134D1E716
:10554000B206CCD51F2CCAD858222A550134C9E737
:105550001F2CC7D860322A550134C3E7720703D520
:105560002B222A550134CAE73207C8D520222A55F2
:105570000134C4E7F0B5DE4657464E464546E0B531
:1055800093B081468A46089209931CAB10CB1B78D6
:105590009B461E9D219B9846002C03D1102342461A
:1055A0009A4390468023DB0046461E4042461A42FC
:1055B00012D0002C22D000260EE03033D9B2771C56
:1055C0000AAB99552900200001F012F8AC4216D31D
:1055D0001F2F14D83E0004002900200001F008F815
:1055E000CBB2092BE9D94246920605D54121C9180B
:1055F000C9B20A39C9B2E2E76121F8E72700434698
:105600000693209B05931F9B049303955B4602938F
:1056100001970AAB0093099B089A51464846FFF749
:1056200020FF13B0F0BCBB46B246A946A046F0BD71
:10563000F0B5DE4657464E464546E0B595B0089073
:1056400009910A920B931E9E1F9C20AB1B789B46D0
:10565000229B9946239D269B9A463300234303D1E0
:10566000103352469A4392468023DB0057461F4030
:1056700052461A4219D0330023432DD0002714E09C
:105680003033DAB27B1C98460CABDA554A462B0015
:105690003000210000F0EAFFA5421FD819D0434690
:1056A0001F2B1BD8474606000C004A462B00300033
:1056B000210000F0DBFFD3B2092BE1D9524692065C
:1056C00005D54122D218D2B20A3AD2B2DAE7612223
:1056D000F8E7B145E3D901E0002398465346069325
:1056E000259B0593249B04934B4603935B460293AF
:1056F000434601930CAB00930B9B0A9A09990898B7
:10570000FFF7AFFE15B0F0BCBB46B246A946A046B7
:10571000F0BD0000F0B5DE4657464E464546E0B5C2
:1057200091B083468A460C9298461A9C08941B9D19
:10573000099522002B002000290001F02AFA0028F8
:1057400000D0E5E001225242D74B2000290001F0B1
:105750001BFA002800D0DBE001225242D34B20008C
:10576000290001F0FBF9002800D0D1E0002200233D
:10577000089E3000099D290001F0F0F9002800D0B2
:10578000DDE008980999069007918023DB001E9AB6
:105790001A400D921E9A1A4201D106231C930698B4
:1057A000079904000D000A000600024300D1D1E071
:1057B000080D4005400DBE4CA44660440A03120B80
:1057C000BC4B13431F0001F0F7F9BB4ABB4B01F080
:1057D0007AF9BB4ABB4B01F04FF904000D000022DF
:1057E000B94B3000390001F03EF9B84AB84B01F02E
:1057F0006AF902000B002000290001F03DF901F0D8
:10580000F3F9814601F0D8F904000D00B14AB24B1A
:1058100001F059F90022B14B01F02EF901F0E4F941
:105820000600AF4AAF4B2000290001F04CF90400FC
:105830000D00300001F0C0F9AB4AAC4B01F043F968
:1058400002000B002000290001F00DF904000D00FA
:1058500002000B0001F037F90A900B91A44BF318EA
:1058600000261F0522002B002000290001F004F96A
:105870000E900F9122002B0000208021C90501F01D
:10588000F2F804000D0000229A4B0A980B9901F0DF
:10589000FCF80022984B01F0EFF802000B000A9888
:1058A0000B9901F0F2F80022944B01F0E5F80200A8
:1058B0000B000A980B9901F0E8F802000B00200099
:1058C000290001F0D9F802000B000E980F9901F0A1
:1058D000DCF80022774B01F0CFF832003B0001F0FA
:1058E000F2F806000F0004000D00069A079B01F075
:1058F0004BF9002830D001235B429C46E144002252
:105900007D4B3000390001F0C0F804000D0023E0A9
:105910001E9B04931D9B03931C9B0293089A099B57
:105920000092019343460C9A5146584600F0FCF809
:1059300011B0F0BCBB46B246A946A046F0BD00235C
:10594000002406930794069680231B069C46654414
:1059500007951AE7002399464B466333C62B1ED89A
:1059600004261E9B1B0526D52B0023430FD0644A1B
:10597000644B0698079901F0FFF8002879D00022BF
:10598000614B0698079901F0E9F8002871D01C9B3B
:105990004B4506DD4A46981A431E1C9303E0052634
:1059A000DFE700231C938023DB001E9A1A431E921C
:1059B0000026002399461D9B9E4264D29F1B022312
:1059C0001E9A1A400A921E9A134202D0002E00D04C
:1059D00000274B46002B07D022002B000698079982
:1059E00001F053F8069007910022002308980999C6
:1059F00001F0B4F8002848D1444B1E9A1340049398
:105A000003971C9B0293069B079C009301944346BB
:105A10000C9A5146584600F087F8002E00D187E7CF
:105A20001E9B9B063DD54525441C4346020051461E
:105A30002800D8474B46DA179B1853400522059299
:105A4000013E0496002203920A3202924A46D00F87
:105A5000019000934346220051465846FFF78AFDC5
:105A60000A9B002B00D163E702005F460C9E1D9D40
:105A700054E01C9B002B9ED00D9B002B9BD01C9BAD
:105A8000013B1C9397E7002799E7069C079D22009E
:105A9000290080200006844661440B00069207938B
:105AA000AAE76525C0E7C046FFFFEF7FFFFFEFFFD6
:105AB00001FCFFFF0000F03FFB799F501344D33FF0
:105AC000B3C8608B288AC63F0000F83F61436F630C
:105AD000A787D23F71A379094F930A400000E03FA6
